{"abi":[{"type":"function","name":"count","inputs":[],"outputs":[{"name":"","type":"uint256","internalType":"uint256"}],"stateMutability":"view"},{"type":"function","name":"getCount","inputs":[],"outputs":[{"name":"","type":"uint256","internalType":"uint256"}],"stateMutability":"view"},{"type":"function","name":"increaseCountByOne","inputs":[],"outputs":[],"stateMutability":"nonpayable"},{"type":"function","name":"setCount","inputs":[{"name":"_count","type":"uint256","internalType":"uint256"}],"outputs":[],"stateMutability":"nonpayable"}],"bytecode":{"object":"0x6080604052348015600e575f5ffd5b506102008061001c5f395ff3fe608060405234801561000f575f5ffd5b506004361061004a575f3560e01c806306661abd1461004e5780637dbfebd91461006c578063a87d942c14610076578063d14e62b814610094575b5f5ffd5b6100566100b0565b60405161006391906100f8565b60405180910390f35b6100746100b5565b005b61007e6100cf565b60405161008b91906100f8565b60405180910390f35b6100ae60048036038101906100a9919061013f565b6100d7565b005b5f5481565b60015f5f8282546100c69190610197565b92505081905550565b5f5f54905090565b805f8190555050565b5f819050919050565b6100f2816100e0565b82525050565b5f60208201905061010b5f8301846100e9565b92915050565b5f5ffd5b61011e816100e0565b8114610128575f5ffd5b50565b5f8135905061013981610115565b92915050565b5f6020828403121561015457610153610111565b5b5f6101618482850161012b565b91505092915050565b7f4e487b71000000000000000000000000000000000000000000000000000000005f52601160045260245ffd5b5f6101a1826100e0565b91506101ac836100e0565b92508282019050808211156101c4576101c361016a565b5b9291505056fea2646970667358221220586a2cfdd0976281c4a0d598b24a045a23765929fc555e1b8cb9c85df91a538a64736f6c634300081c0033","linkReferences":{}},"methodIdentifiers":{"count()":"06661abd","getCount()":"a87d942c","increaseCountByOne()":"7dbfebd9","setCount(uint256)":"d14e62b8"},"id":3}