{"abi":[{"type":"constructor","inputs":[{"name":"_name","type":"string","internalType":"string"},{"name":"_symbol","type":"string","internalType":"string"},{"name":"_owner","type":"address","internalType":"address"}],"stateMutability":"nonpayable"},{"type":"function","name":"allowance","inputs":[{"name":"owner","type":"address","internalType":"address"},{"name":"spender","type":"address","internalType":"address"}],"outputs":[{"name":"","type":"uint256","internalType":"uint256"}],"stateMutability":"view"},{"type":"function","name":"approve","inputs":[{"name":"spender","type":"address","internalType":"address"},{"name":"value","type":"uint256","internalType":"uint256"}],"outputs":[{"name":"","type":"bool","internalType":"bool"}],"stateMutability":"nonpayable"},{"type":"function","name":"balanceOf","inputs":[{"name":"account","type":"address","internalType":"address"}],"outputs":[{"name":"","type":"uint256","internalType":"uint256"}],"stateMutability":"view"},{"type":"function","name":"burn","inputs":[{"name":"_amount","type":"uint256","internalType":"uint256"}],"outputs":[],"stateMutability":"nonpayable"},{"type":"function","name":"burnFrom","inputs":[{"name":"_user","type":"address","internalType":"address"},{"name":"_amount","type":"uint256","internalType":"uint256"}],"outputs":[],"stateMutability":"nonpayable"},{"type":"function","name":"decimals","inputs":[],"outputs":[{"name":"","type":"uint8","internalType":"uint8"}],"stateMutability":"view"},{"type":"function","name":"mint","inputs":[{"name":"_amount","type":"uint256","internalType":"uint256"},{"name":"_recepient","type":"address","internalType":"address"}],"outputs":[],"stateMutability":"nonpayable"},{"type":"function","name":"name","inputs":[],"outputs":[{"name":"","type":"string","internalType":"string"}],"stateMutability":"view"},{"type":"function","name":"owner","inputs":[],"outputs":[{"name":"","type":"address","internalType":"address"}],"stateMutability":"view"},{"type":"function","name":"symbol","inputs":[],"outputs":[{"name":"","type":"string","internalType":"string"}],"stateMutability":"view"},{"type":"function","name":"totalSupply","inputs":[],"outputs":[{"name":"","type":"uint256","internalType":"uint256"}],"stateMutability":"view"},{"type":"function","name":"transfer","inputs":[{"name":"to","type":"address","internalType":"address"},{"name":"value","type":"uint256","internalType":"uint256"}],"outputs":[{"name":"","type":"bool","internalType":"bool"}],"stateMutability":"nonpayable"},{"type":"function","name":"transferFrom","inputs":[{"name":"from","type":"address","internalType":"address"},{"name":"to","type":"address","internalType":"address"},{"name":"value","type":"uint256","internalType":"uint256"}],"outputs":[{"name":"","type":"bool","internalType":"bool"}],"stateMutability":"nonpayable"},{"type":"event","name":"Approval","inputs":[{"name":"owner","type":"address","indexed":true,"internalType":"address"},{"name":"spender","type":"address","indexed":true,"internalType":"address"},{"name":"value","type":"uint256","indexed":false,"internalType":"uint256"}],"anonymous":false},{"type":"event","name":"Transfer","inputs":[{"name":"from","type":"address","indexed":true,"internalType":"address"},{"name":"to","type":"address","indexed":true,"internalType":"address"},{"name":"value","type":"uint256","indexed":false,"internalType":"uint256"}],"anonymous":false},{"type":"error","name":"ERC20InsufficientAllowance","inputs":[{"name":"spender","type":"address","internalType":"address"},{"name":"allowance","type":"uint256","internalType":"uint256"},{"name":"needed","type":"uint256","internalType":"uint256"}]},{"type":"error","name":"ERC20InsufficientBalance","inputs":[{"name":"sender","type":"address","internalType":"address"},{"name":"balance","type":"uint256","internalType":"uint256"},{"name":"needed","type":"uint256","internalType":"uint256"}]},{"type":"error","name":"ERC20InvalidApprover","inputs":[{"name":"approver","type":"address","internalType":"address"}]},{"type":"error","name":"ERC20InvalidReceiver","inputs":[{"name":"receiver","type":"address","internalType":"address"}]},{"type":"error","name":"ERC20InvalidSender","inputs":[{"name":"sender","type":"address","internalType":"address"}]},{"type":"error","name":"ERC20InvalidSpender","inputs":[{"name":"spender","type":"address","internalType":"address"}]}],"bytecode":{"object":"0x608060405234801561000f575f5ffd5b506040516119e93803806119e9833981810160405281019061003191906102b2565b82828160039081610042919061054a565b508060049081610052919061054a565b5050505f73ffffffffffffffffffffffffffffffffffffffff168173ffffffffffffffffffffffffffffffffffffffff16036100c3576040517f08c379a00000000000000000000000000000000000000000000000000000000081526004016100ba90610699565b60405180910390fd5b8060055f6101000a81548173ffffffffffffffffffffffffffffffffffffffff021916908373ffffffffffffffffffffffffffffffffffffffff1602179055505050506106b7565b5f604051905090565b5f5ffd5b5f5ffd5b5f5ffd5b5f5ffd5b5f601f19601f8301169050919050565b7f4e487b71000000000000000000000000000000000000000000000000000000005f52604160045260245ffd5b61016a82610124565b810181811067ffffffffffffffff8211171561018957610188610134565b5b80604052505050565b5f61019b61010b565b90506101a78282610161565b919050565b5f67ffffffffffffffff8211156101c6576101c5610134565b5b6101cf82610124565b9050602081019050919050565b8281835e5f83830152505050565b5f6101fc6101f7846101ac565b610192565b90508281526020810184848401111561021857610217610120565b5b6102238482856101dc565b509392505050565b5f82601f83011261023f5761023e61011c565b5b815161024f8482602086016101ea565b91505092915050565b5f73ffffffffffffffffffffffffffffffffffffffff82169050919050565b5f61028182610258565b9050919050565b61029181610277565b811461029b575f5ffd5b50565b5f815190506102ac81610288565b92915050565b5f5f5f606084860312156102c9576102c8610114565b5b5f84015167ffffffffffffffff8111156102e6576102e5610118565b5b6102f28682870161022b565b935050602084015167ffffffffffffffff81111561031357610312610118565b5b61031f8682870161022b565b92505060406103308682870161029e565b9150509250925092565b5f81519050919050565b7f4e487b71000000000000000000000000000000000000000000000000000000005f52602260045260245ffd5b5f600282049050600182168061038857607f821691505b60208210810361039b5761039a610344565b5b50919050565b5f819050815f5260205f209050919050565b5f6020601f8301049050919050565b5f82821b905092915050565b5f600883026103fd7fffffffffffffffffffffffffffffffffffffffffffffffffffffffffffffffff826103c2565b61040786836103c2565b95508019841693508086168417925050509392505050565b5f819050919050565b5f819050919050565b5f61044b6104466104418461041f565b610428565b61041f565b9050919050565b5f819050919050565b61046483610431565b61047861047082610452565b8484546103ce565b825550505050565b5f5f905090565b61048f610480565b61049a81848461045b565b505050565b5b818110156104bd576104b25f82610487565b6001810190506104a0565b5050565b601f821115610502576104d3816103a1565b6104dc846103b3565b810160208510156104eb578190505b6104ff6104f7856103b3565b83018261049f565b50505b505050565b5f82821c905092915050565b5f6105225f1984600802610507565b1980831691505092915050565b5f61053a8383610513565b9150826002028217905092915050565b6105538261033a565b67ffffffffffffffff81111561056c5761056b610134565b5b6105768254610371565b6105818282856104c1565b5f60209050601f8311600181146105b2575f84156105a0578287015190505b6105aa858261052f565b865550610611565b601f1984166105c0866103a1565b5f5b828110156105e7578489015182556001820191506020850194506020810190506105c2565b868310156106045784890151610600601f891682610513565b8355505b6001600288020188555050505b505050505050565b5f82825260208201905092915050565b7f426c6f636b546f6b656e3a3a205a65726f2061646472657373206e6f742073755f8201527f70706f7274656400000000000000000000000000000000000000000000000000602082015250565b5f610683602783610619565b915061068e82610629565b604082019050919050565b5f6020820190508181035f8301526106b081610677565b9050919050565b611325806106c45f395ff3fe608060405234801561000f575f5ffd5b50600436106100cd575f3560e01c806370a082311161008a57806394bf804d1161006457806394bf804d1461021157806395d89b411461022d578063a9059cbb1461024b578063dd62ed3e1461027b576100cd565b806370a08231146101a757806379cc6790146101d75780638da5cb5b146101f3576100cd565b806306fdde03146100d1578063095ea7b3146100ef57806318160ddd1461011f57806323b872dd1461013d578063313ce5671461016d57806342966c681461018b575b5f5ffd5b6100d96102ab565b6040516100e69190610e3f565b60405180910390f35b61010960048036038101906101049190610ef0565b61033b565b6040516101169190610f48565b60405180910390f35b61012761035d565b6040516101349190610f70565b60405180910390f35b61015760048036038101906101529190610f89565b610366565b6040516101649190610f48565b60405180910390f35b610175610394565b6040516101829190610ff4565b60405180910390f35b6101a560048036038101906101a0919061100d565b61039c565b005b6101c160048036038101906101bc9190611038565b6103ed565b6040516101ce9190610f70565b60405180910390f35b6101f160048036038101906101ec9190610ef0565b610432565b005b6101fb610513565b6040516102089190611072565b60405180910390f35b61022b6004803603810190610226919061108b565b610538565b005b610235610619565b6040516102429190610e3f565b60405180910390f35b61026560048036038101906102609190610ef0565b6106a9565b6040516102729190610f48565b60405180910390f35b610295600480360381019061029091906110c9565b6106cb565b6040516102a29190610f70565b60405180910390f35b6060600380546102ba90611134565b80601f01602080910402602001604051908101604052809291908181526020018280546102e690611134565b80156103315780601f1061030857610100808354040283529160200191610331565b820191905f5260205f20905b81548152906001019060200180831161031457829003601f168201915b5050505050905090565b5f5f61034561074d565b9050610352818585610754565b600191505092915050565b5f600254905090565b5f5f61037061074d565b905061037d858285610766565b6103888585856107f9565b60019150509392505050565b5f6012905090565b805f81036103df576040517f08c379a00000000000000000000000000000000000000000000000000000000081526004016103d6906111d4565b60405180910390fd5b6103e933836108e9565b5050565b5f5f5f8373ffffffffffffffffffffffffffffffffffffffff1673ffffffffffffffffffffffffffffffffffffffff1681526020019081526020015f20549050919050565b60055f9054906101000a900473ffffffffffffffffffffffffffffffffffffffff1673ffffffffffffffffffffffffffffffffffffffff163373ffffffffffffffffffffffffffffffffffffffff16146104c1576040517f08c379a00000000000000000000000000000000000000000000000000000000081526004016104b89061123c565b60405180910390fd5b805f8103610504576040517f08c379a00000000000000000000000000000000000000000000000000000000081526004016104fb906111d4565b60405180910390fd5b61050e83836108e9565b505050565b60055f9054906101000a900473ffffffffffffffffffffffffffffffffffffffff1681565b60055f9054906101000a900473ffffffffffffffffffffffffffffffffffffffff1673ffffffffffffffffffffffffffffffffffffffff163373ffffffffffffffffffffffffffffffffffffffff16146105c7576040517f08c379a00000000000000000000000000000000000000000000000000000000081526004016105be9061123c565b60405180910390fd5b815f810361060a576040517f08c379a0000000000000000000000000000000000000000000000000000000008152600401610601906111d4565b60405180910390fd5b6106148284610968565b505050565b60606004805461062890611134565b80601f016020809104026020016040519081016040528092919081815260200182805461065490611134565b801561069f5780601f106106765761010080835404028352916020019161069f565b820191905f5260205f20905b81548152906001019060200180831161068257829003601f168201915b5050505050905090565b5f5f6106b361074d565b90506106c08185856107f9565b600191505092915050565b5f60015f8473ffffffffffffffffffffffffffffffffffffffff1673ffffffffffffffffffffffffffffffffffffffff1681526020019081526020015f205f8373ffffffffffffffffffffffffffffffffffffffff1673ffffffffffffffffffffffffffffffffffffffff1681526020019081526020015f2054905092915050565b5f33905090565b61076183838360016109e7565b505050565b5f61077184846106cb565b90507fffffffffffffffffffffffffffffffffffffffffffffffffffffffffffffffff8110156107f357818110156107e4578281836040517ffb8f41b20000000000000000000000000000000000000000000000000000000081526004016107db9392919061125a565b60405180910390fd5b6107f284848484035f6109e7565b5b50505050565b5f73ffffffffffffffffffffffffffffffffffffffff168373ffffffffffffffffffffffffffffffffffffffff1603610869575f6040517f96c6fd1e0000000000000000000000000000000000000000000000000000000081526004016108609190611072565b60405180910390fd5b5f73ffffffffffffffffffffffffffffffffffffffff168273ffffffffffffffffffffffffffffffffffffffff16036108d9575f6040517fec442f050000000000000000000000000000000000000000000000000000000081526004016108d09190611072565b60405180910390fd5b6108e4838383610bb6565b505050565b5f73ffffffffffffffffffffffffffffffffffffffff168273ffffffffffffffffffffffffffffffffffffffff1603610959575f6040517f96c6fd1e0000000000000000000000000000000000000000000000000000000081526004016109509190611072565b60405180910390fd5b610964825f83610bb6565b5050565b5f73ffffffffffffffffffffffffffffffffffffffff168273ffffffffffffffffffffffffffffffffffffffff16036109d8575f6040517fec442f050000000000000000000000000000000000000000000000000000000081526004016109cf9190611072565b60405180910390fd5b6109e35f8383610bb6565b5050565b5f73ffffffffffffffffffffffffffffffffffffffff168473ffffffffffffffffffffffffffffffffffffffff1603610a57575f6040517fe602df05000000000000000000000000000000000000000000000000000000008152600401610a4e9190611072565b60405180910390fd5b5f73ffffffffffffffffffffffffffffffffffffffff168373ffffffffffffffffffffffffffffffffffffffff1603610ac7575f6040517f94280d62000000000000000000000000000000000000000000000000000000008152600401610abe9190611072565b60405180910390fd5b8160015f8673ffffffffffffffffffffffffffffffffffffffff1673ffffffffffffffffffffffffffffffffffffffff1681526020019081526020015f205f8573ffffffffffffffffffffffffffffffffffffffff1673ffffffffffffffffffffffffffffffffffffffff1681526020019081526020015f20819055508015610bb0578273ffffffffffffffffffffffffffffffffffffffff168473ffffffffffffffffffffffffffffffffffffffff167f8c5be1e5ebec7d5bd14f71427d1e84f3dd0314c0f7b2291e5b200ac8c7c3b92584604051610ba79190610f70565b60405180910390a35b50505050565b5f73ffffffffffffffffffffffffffffffffffffffff168373ffffffffffffffffffffffffffffffffffffffff1603610c06578060025f828254610bfa91906112bc565b92505081905550610cd4565b5f5f5f8573ffffffffffffffffffffffffffffffffffffffff1673ffffffffffffffffffffffffffffffffffffffff1681526020019081526020015f2054905081811015610c8f578381836040517fe450d38c000000000000000000000000000000000000000000000000000000008152600401610c869392919061125a565b60405180910390fd5b8181035f5f8673ffffffffffffffffffffffffffffffffffffffff1673ffffffffffffffffffffffffffffffffffffffff1681526020019081526020015f2081905550505b5f73ffffffffffffffffffffffffffffffffffffffff168273ffffffffffffffffffffffffffffffffffffffff1603610d1b578060025f8282540392505081905550610d65565b805f5f8473ffffffffffffffffffffffffffffffffffffffff1673ffffffffffffffffffffffffffffffffffffffff1681526020019081526020015f205f82825401925050819055505b8173ffffffffffffffffffffffffffffffffffffffff168373ffffffffffffffffffffffffffffffffffffffff167fddf252ad1be2c89b69c2b068fc378daa952ba7f163c4a11628f55a4df523b3ef83604051610dc29190610f70565b60405180910390a3505050565b5f81519050919050565b5f82825260208201905092915050565b8281835e5f83830152505050565b5f601f19601f8301169050919050565b5f610e1182610dcf565b610e1b8185610dd9565b9350610e2b818560208601610de9565b610e3481610df7565b840191505092915050565b5f6020820190508181035f830152610e578184610e07565b905092915050565b5f5ffd5b5f73ffffffffffffffffffffffffffffffffffffffff82169050919050565b5f610e8c82610e63565b9050919050565b610e9c81610e82565b8114610ea6575f5ffd5b50565b5f81359050610eb781610e93565b92915050565b5f819050919050565b610ecf81610ebd565b8114610ed9575f5ffd5b50565b5f81359050610eea81610ec6565b92915050565b5f5f60408385031215610f0657610f05610e5f565b5b5f610f1385828601610ea9565b9250506020610f2485828601610edc565b9150509250929050565b5f8115159050919050565b610f4281610f2e565b82525050565b5f602082019050610f5b5f830184610f39565b92915050565b610f6a81610ebd565b82525050565b5f602082019050610f835f830184610f61565b92915050565b5f5f5f60608486031215610fa057610f9f610e5f565b5b5f610fad86828701610ea9565b9350506020610fbe86828701610ea9565b9250506040610fcf86828701610edc565b9150509250925092565b5f60ff82169050919050565b610fee81610fd9565b82525050565b5f6020820190506110075f830184610fe5565b92915050565b5f6020828403121561102257611021610e5f565b5b5f61102f84828501610edc565b91505092915050565b5f6020828403121561104d5761104c610e5f565b5b5f61105a84828501610ea9565b91505092915050565b61106c81610e82565b82525050565b5f6020820190506110855f830184611063565b92915050565b5f5f604083850312156110a1576110a0610e5f565b5b5f6110ae85828601610edc565b92505060206110bf85828601610ea9565b9150509250929050565b5f5f604083850312156110df576110de610e5f565b5b5f6110ec85828601610ea9565b92505060206110fd85828601610ea9565b9150509250929050565b7f4e487b71000000000000000000000000000000000000000000000000000000005f52602260045260245ffd5b5f600282049050600182168061114b57607f821691505b60208210810361115e5761115d611107565b5b50919050565b7f426c6f636b546f6b656e3a3a205a65726f20616d6f756e74206e6f74207375705f8201527f706f727465640000000000000000000000000000000000000000000000000000602082015250565b5f6111be602683610dd9565b91506111c982611164565b604082019050919050565b5f6020820190508181035f8301526111eb816111b2565b9050919050565b7f426c6f636b546f6b656e3a3a20556e617574686f72697a6564205573657200005f82015250565b5f611226601e83610dd9565b9150611231826111f2565b602082019050919050565b5f6020820190508181035f8301526112538161121a565b9050919050565b5f60608201905061126d5f830186611063565b61127a6020830185610f61565b6112876040830184610f61565b949350505050565b7f4e487b71000000000000000000000000000000000000000000000000000000005f52601160045260245ffd5b5f6112c682610ebd565b91506112d183610ebd565b92508282019050808211156112e9576112e861128f565b5b9291505056fea26469706673582212204d59983f477d2820ddd933268720d8ca71b2812477279be485690db30a99b04e64736f6c634300081c0033","linkReferences":{}},"methodIdentifiers":{"allowance(address,address)":"dd62ed3e","approve(address,uint256)":"095ea7b3","balanceOf(address)":"70a08231","burn(uint256)":"42966c68","burnFrom(address,uint256)":"79cc6790","decimals()":"313ce567","mint(uint256,address)":"94bf804d","name()":"06fdde03","owner()":"8da5cb5b","symbol()":"95d89b41","totalSupply()":"18160ddd","transfer(address,uint256)":"a9059cbb","transferFrom(address,address,uint256)":"23b872dd"},"id":0}