{"abi":[{"type":"constructor","inputs":[{"name":"_deployedAccessToken","type":"address","internalType":"address"},{"name":"_deployedNFT","type":"address","internalType":"address"},{"name":"_owner","type":"address","internalType":"address"}],"stateMutability":"nonpayable"},{"type":"function","name":"MAX_AMOUNT","inputs":[],"outputs":[{"name":"","type":"uint256","internalType":"uint256"}],"stateMutability":"view"},{"type":"function","name":"_accessToken","inputs":[],"outputs":[{"name":"","type":"address","internalType":"contract AccessToken"}],"stateMutability":"view"},{"type":"function","name":"_membershipNFT","inputs":[],"outputs":[{"name":"","type":"address","internalType":"contract MembershipNFT"}],"stateMutability":"view"},{"type":"function","name":"balances","inputs":[{"name":"","type":"address","internalType":"address"}],"outputs":[{"name":"","type":"uint256","internalType":"uint256"}],"stateMutability":"view"},{"type":"function","name":"claimMembershipNFT","inputs":[],"outputs":[{"name":"","type":"uint256","internalType":"uint256"}],"stateMutability":"nonpayable"},{"type":"function","name":"getAccessToken","inputs":[{"name":"amount","type":"uint256","internalType":"uint256"}],"outputs":[],"stateMutability":"nonpayable"},{"type":"function","name":"hasClaimed","inputs":[{"name":"","type":"address","internalType":"address"}],"outputs":[{"name":"","type":"bool","internalType":"bool"}],"stateMutability":"view"},{"type":"function","name":"minAmount","inputs":[],"outputs":[{"name":"","type":"uint256","internalType":"uint256"}],"stateMutability":"view"},{"type":"function","name":"owner","inputs":[],"outputs":[{"name":"","type":"address","internalType":"address"}],"stateMutability":"view"},{"type":"function","name":"setMinimumThreshold","inputs":[{"name":"_newMinAmount","type":"uint256","internalType":"uint256"}],"outputs":[],"stateMutability":"nonpayable"},{"type":"error","name":"AmountTooHigh","inputs":[]},{"type":"error","name":"InsufficientBalance","inputs":[]},{"type":"error","name":"UnauthorizedAccess","inputs":[]},{"type":"error","name":"UnauthorizedClaim","inputs":[]}],"bytecode":{"object":"0x60806040526032600355348015610014575f5ffd5b50604051610c74380380610c748339818101604052810190610036919061015b565b825f5f6101000a81548173ffffffffffffffffffffffffffffffffffffffff021916908373ffffffffffffffffffffffffffffffffffffffff1602179055508160015f6101000a81548173ffffffffffffffffffffffffffffffffffffffff021916908373ffffffffffffffffffffffffffffffffffffffff1602179055508060025f6101000a81548173ffffffffffffffffffffffffffffffffffffffff021916908373ffffffffffffffffffffffffffffffffffffffff1602179055505050506101ab565b5f5ffd5b5f73ffffffffffffffffffffffffffffffffffffffff82169050919050565b5f61012a82610101565b9050919050565b61013a81610120565b8114610144575f5ffd5b50565b5f8151905061015581610131565b92915050565b5f5f5f60608486031215610172576101716100fd565b5b5f61017f86828701610147565b935050602061019086828701610147565b92505060406101a186828701610147565b9150509250925092565b610abc806101b85f395ff3fe608060405234801561000f575f5ffd5b506004361061009c575f3560e01c80638da5cb5b116100645780638da5cb5b14610158578063991acf6e146101765780639b2cb5d814610192578063d40dc870146101b0578063db693fd1146101ce5761009c565b806327e235e3146100a057806367058d29146100d057806373b2e80e146100ec57806378f9529d1461011c5780638271db121461013a575b5f5ffd5b6100ba60048036038101906100b59190610773565b6101ec565b6040516100c791906107b6565b60405180910390f35b6100ea60048036038101906100e591906107f9565b610201565b005b61010660048036038101906101019190610773565b6102fc565b604051610113919061083e565b60405180910390f35b610124610319565b60405161013191906107b6565b60405180910390f35b61014261056d565b60405161014f91906108b2565b60405180910390f35b610160610592565b60405161016d91906108da565b60405180910390f35b610190600480360381019061018b91906107f9565b6105b7565b005b61019a6106e5565b6040516101a791906107b6565b60405180910390f35b6101b86106eb565b6040516101c591906107b6565b60405180910390f35b6101d66106f1565b6040516101e39190610913565b60405180910390f35b6005602052805f5260405f205f915090505481565b5f5f9054906101000a900473ffffffffffffffffffffffffffffffffffffffff1673ffffffffffffffffffffffffffffffffffffffff1663893d20e86040518163ffffffff1660e01b8152600401602060405180830381865afa15801561026a573d5f5f3e3d5ffd5b505050506040513d601f19601f8201168201806040525081019061028e9190610940565b73ffffffffffffffffffffffffffffffffffffffff163373ffffffffffffffffffffffffffffffffffffffff16146102f2576040517f344fd58600000000000000000000000000000000000000000000000000000000815260040160405180910390fd5b8060048190555050565b6006602052805f5260405f205f915054906101000a900460ff1681565b5f6003545f5f9054906101000a900473ffffffffffffffffffffffffffffffffffffffff1673ffffffffffffffffffffffffffffffffffffffff166370a08231336040518263ffffffff1660e01b815260040161037691906108da565b602060405180830381865afa158015610391573d5f5f3e3d5ffd5b505050506040513d601f19601f820116820180604052508101906103b5919061097f565b10156103ed576040517ff4d678b800000000000000000000000000000000000000000000000000000000815260040160405180910390fd5b6001151560065f3373ffffffffffffffffffffffffffffffffffffffff1673ffffffffffffffffffffffffffffffffffffffff1681526020019081526020015f205f9054906101000a900460ff16151503610474576040517f700925ab00000000000000000000000000000000000000000000000000000000815260040160405180910390fd5b600160065f3373ffffffffffffffffffffffffffffffffffffffff1673ffffffffffffffffffffffffffffffffffffffff1681526020019081526020015f205f6101000a81548160ff0219169083151502179055505f60015f9054906101000a900473ffffffffffffffffffffffffffffffffffffffff1673ffffffffffffffffffffffffffffffffffffffff16636a627842336040518263ffffffff1660e01b815260040161052491906108da565b6020604051808303815f875af1158015610540573d5f5f3e3d5ffd5b505050506040513d601f19601f82011682018060405250810190610564919061097f565b90508091505090565b60015f9054906101000a900473ffffffffffffffffffffffffffffffffffffffff1681565b60025f9054906101000a900473ffffffffffffffffffffffffffffffffffffffff1681565b6003548111156105f3576040517ffd7850ad00000000000000000000000000000000000000000000000000000000815260040160405180910390fd5b5f5f9054906101000a900473ffffffffffffffffffffffffffffffffffffffff1673ffffffffffffffffffffffffffffffffffffffff1663a9059cbb33836040518363ffffffff1660e01b815260040161064e9291906109aa565b6020604051808303815f875af115801561066a573d5f5f3e3d5ffd5b505050506040513d601f19601f8201168201806040525081019061068e91906109fb565b508060055f3373ffffffffffffffffffffffffffffffffffffffff1673ffffffffffffffffffffffffffffffffffffffff1681526020019081526020015f205f8282546106db9190610a53565b9250508190555050565b60045481565b60035481565b5f5f9054906101000a900473ffffffffffffffffffffffffffffffffffffffff1681565b5f5ffd5b5f73ffffffffffffffffffffffffffffffffffffffff82169050919050565b5f61074282610719565b9050919050565b61075281610738565b811461075c575f5ffd5b50565b5f8135905061076d81610749565b92915050565b5f6020828403121561078857610787610715565b5b5f6107958482850161075f565b91505092915050565b5f819050919050565b6107b08161079e565b82525050565b5f6020820190506107c95f8301846107a7565b92915050565b6107d88161079e565b81146107e2575f5ffd5b50565b5f813590506107f3816107cf565b92915050565b5f6020828403121561080e5761080d610715565b5b5f61081b848285016107e5565b91505092915050565b5f8115159050919050565b61083881610824565b82525050565b5f6020820190506108515f83018461082f565b92915050565b5f819050919050565b5f61087a61087561087084610719565b610857565b610719565b9050919050565b5f61088b82610860565b9050919050565b5f61089c82610881565b9050919050565b6108ac81610892565b82525050565b5f6020820190506108c55f8301846108a3565b92915050565b6108d481610738565b82525050565b5f6020820190506108ed5f8301846108cb565b92915050565b5f6108fd82610881565b9050919050565b61090d816108f3565b82525050565b5f6020820190506109265f830184610904565b92915050565b5f8151905061093a81610749565b92915050565b5f6020828403121561095557610954610715565b5b5f6109628482850161092c565b91505092915050565b5f81519050610979816107cf565b92915050565b5f6020828403121561099457610993610715565b5b5f6109a18482850161096b565b91505092915050565b5f6040820190506109bd5f8301856108cb565b6109ca60208301846107a7565b9392505050565b6109da81610824565b81146109e4575f5ffd5b50565b5f815190506109f5816109d1565b92915050565b5f60208284031215610a1057610a0f610715565b5b5f610a1d848285016109e7565b91505092915050565b7f4e487b71000000000000000000000000000000000000000000000000000000005f52601160045260245ffd5b5f610a5d8261079e565b9150610a688361079e565b9250828201905080821115610a8057610a7f610a26565b5b9291505056fea2646970667358221220745ed8e0603f8f9c35efadb0d5466c33a5a73b3963248ded045ef200b88247db64736f6c634300081e0033","linkReferences":{}},"methodIdentifiers":{"MAX_AMOUNT()":"d40dc870","_accessToken()":"db693fd1","_membershipNFT()":"8271db12","balances(address)":"27e235e3","claimMembershipNFT()":"78f9529d","getAccessToken(uint256)":"991acf6e","hasClaimed(address)":"73b2e80e","minAmount()":"9b2cb5d8","owner()":"8da5cb5b","setMinimumThreshold(uint256)":"67058d29"},"id":34}