{"abi":[{"type":"constructor","inputs":[{"name":"_marketplace","type":"address","internalType":"contract BlockMarketPlace"},{"name":"_nft","type":"address","internalType":"contract BlockNft"}],"stateMutability":"nonpayable"},{"type":"fallback","stateMutability":"payable"},{"type":"receive","stateMutability":"payable"},{"type":"function","name":"Name","inputs":[],"outputs":[{"name":"","type":"string","internalType":"string"}],"stateMutability":"view"},{"type":"function","name":"callList","inputs":[{"name":"l","type":"tuple","internalType":"struct Listing","components":[{"name":"owner","type":"address","internalType":"address"},{"name":"tokenId","type":"uint256","internalType":"uint256"},{"name":"paymentToken","type":"address","internalType":"contract IERC20"},{"name":"NftToken","type":"address","internalType":"address"},{"name":"isNative","type":"bool","internalType":"bool"},{"name":"price","type":"uint256","internalType":"uint256"},{"name":"sold","type":"bool","internalType":"bool"},{"name":"minOffer","type":"uint256","internalType":"uint256"}]}],"outputs":[],"stateMutability":"nonpayable"},{"type":"function","name":"marketplace","inputs":[],"outputs":[{"name":"","type":"address","internalType":"contract BlockMarketPlace"}],"stateMutability":"view"},{"type":"function","name":"nft","inputs":[],"outputs":[{"name":"","type":"address","internalType":"contract BlockNft"}],"stateMutability":"view"},{"type":"function","name":"onERC721Received","inputs":[{"name":"operator","type":"address","internalType":"address"},{"name":"from","type":"address","internalType":"address"},{"name":"tokenId","type":"uint256","internalType":"uint256"},{"name":"data","type":"bytes","internalType":"bytes"}],"outputs":[{"name":"","type":"bytes4","internalType":"bytes4"}],"stateMutability":"nonpayable"},{"type":"function","name":"setname","inputs":[{"name":"_name","type":"string","internalType":"string"}],"outputs":[],"stateMutability":"nonpayable"}],"bytecode":{"object":"0x608060405234801561000f575f5ffd5b506040516111cf3803806111cf83398181016040528101906100319190610161565b815f5f6101000a81548173ffffffffffffffffffffffffffffffffffffffff021916908373ffffffffffffffffffffffffffffffffffffffff1602179055508060015f6101000a81548173ffffffffffffffffffffffffffffffffffffffff021916908373ffffffffffffffffffffffffffffffffffffffff160217905550505061019f565b5f5ffd5b5f73ffffffffffffffffffffffffffffffffffffffff82169050919050565b5f6100e4826100bb565b9050919050565b5f6100f5826100da565b9050919050565b610105816100eb565b811461010f575f5ffd5b50565b5f81519050610120816100fc565b92915050565b5f610130826100da565b9050919050565b61014081610126565b811461014a575f5ffd5b50565b5f8151905061015b81610137565b92915050565b5f5f60408385031215610177576101766100b7565b5b5f61018485828601610112565b92505060206101958582860161014d565b9150509250929050565b611023806101ac5f395ff3fe608060405260043610610058575f3560e01c8063150b7a02146100d35780632cefeb071461010f57806347ccca02146101375780638052474d14610161578063abc8c7af1461018b578063d8e0b948146101b557610098565b36610098576040517f08c379a000000000000000000000000000000000000000000000000000000000815260040161008f90610527565b60405180910390fd5b6040517f08c379a00000000000000000000000000000000000000000000000000000000081526004016100ca9061058f565b60405180910390fd5b3480156100de575f5ffd5b506100f960048036038101906100f491906106ac565b6101dd565b604051610106919061076a565b60405180910390f35b34801561011a575f5ffd5b50610135600480360381019061013091906108bb565b6101f1565b005b348015610142575f5ffd5b5061014b610204565b604051610158919061095d565b60405180910390f35b34801561016c575f5ffd5b50610175610229565b60405161018291906109c6565b60405180910390f35b348015610196575f5ffd5b5061019f6102b5565b6040516101ac9190610a06565b60405180910390f35b3480156101c0575f5ffd5b506101db60048036038101906101d69190610b5a565b6102d9565b005b5f63150b7a0260e01b905095945050505050565b80600290816102009190610d7a565b5050565b60015f9054906101000a900473ffffffffffffffffffffffffffffffffffffffff1681565b6002805461023690610bb3565b80601f016020809104026020016040519081016040528092919081815260200182805461026290610bb3565b80156102ad5780601f10610284576101008083540402835291602001916102ad565b820191905f5260205f20905b81548152906001019060200180831161029057829003601f168201915b505050505081565b5f5f9054906101000a900473ffffffffffffffffffffffffffffffffffffffff1681565b60015f9054906101000a900473ffffffffffffffffffffffffffffffffffffffff1673ffffffffffffffffffffffffffffffffffffffff16636a627842306040518263ffffffff1660e01b81526004016103339190610e58565b6020604051808303815f875af115801561034f573d5f5f3e3d5ffd5b505050506040513d601f19601f820116820180604052508101906103739190610e85565b5060015f9054906101000a900473ffffffffffffffffffffffffffffffffffffffff1673ffffffffffffffffffffffffffffffffffffffff1663a22cb4655f5f9054906101000a900473ffffffffffffffffffffffffffffffffffffffff1660016040518363ffffffff1660e01b81526004016103f1929190610ebf565b5f604051808303815f87803b158015610408575f5ffd5b505af115801561041a573d5f5f3e3d5ffd5b505050505f5f9054906101000a900473ffffffffffffffffffffffffffffffffffffffff1673ffffffffffffffffffffffffffffffffffffffff1663ee960a2f826040518263ffffffff1660e01b81526004016104779190610fd3565b5f604051808303815f87803b15801561048e575f5ffd5b505af11580156104a0573d5f5f3e3d5ffd5b5050505050565b5f82825260208201905092915050565b7f6e6174697665207472616e736665722061726520756e737570706f72746564215f8201527f2121000000000000000000000000000000000000000000000000000000000000602082015250565b5f6105116022836104a7565b915061051c826104b7565b604082019050919050565b5f6020820190508181035f83015261053e81610505565b9050919050565b7f66756e6374696f6e206e6f7420666f756e6400000000000000000000000000005f82015250565b5f6105796012836104a7565b915061058482610545565b602082019050919050565b5f6020820190508181035f8301526105a68161056d565b9050919050565b5f604051905090565b5f5ffd5b5f5ffd5b5f73ffffffffffffffffffffffffffffffffffffffff82169050919050565b5f6105e7826105be565b9050919050565b6105f7816105dd565b8114610601575f5ffd5b50565b5f81359050610612816105ee565b92915050565b5f819050919050565b61062a81610618565b8114610634575f5ffd5b50565b5f8135905061064581610621565b92915050565b5f5ffd5b5f5ffd5b5f5ffd5b5f5f83601f84011261066c5761066b61064b565b5b8235905067ffffffffffffffff8111156106895761068861064f565b5b6020830191508360018202830111156106a5576106a4610653565b5b9250929050565b5f5f5f5f5f608086880312156106c5576106c46105b6565b5b5f6106d288828901610604565b95505060206106e388828901610604565b94505060406106f488828901610637565b935050606086013567ffffffffffffffff811115610715576107146105ba565b5b61072188828901610657565b92509250509295509295909350565b5f7fffffffff0000000000000000000000000000000000000000000000000000000082169050919050565b61076481610730565b82525050565b5f60208201905061077d5f83018461075b565b92915050565b5f5ffd5b5f601f19601f8301169050919050565b7f4e487b71000000000000000000000000000000000000000000000000000000005f52604160045260245ffd5b6107cd82610787565b810181811067ffffffffffffffff821117156107ec576107eb610797565b5b80604052505050565b5f6107fe6105ad565b905061080a82826107c4565b919050565b5f67ffffffffffffffff82111561082957610828610797565b5b61083282610787565b9050602081019050919050565b828183375f83830152505050565b5f61085f61085a8461080f565b6107f5565b90508281526020810184848401111561087b5761087a610783565b5b61088684828561083f565b509392505050565b5f82601f8301126108a2576108a161064b565b5b81356108b284826020860161084d565b91505092915050565b5f602082840312156108d0576108cf6105b6565b5b5f82013567ffffffffffffffff8111156108ed576108ec6105ba565b5b6108f98482850161088e565b91505092915050565b5f819050919050565b5f61092561092061091b846105be565b610902565b6105be565b9050919050565b5f6109368261090b565b9050919050565b5f6109478261092c565b9050919050565b6109578161093d565b82525050565b5f6020820190506109705f83018461094e565b92915050565b5f81519050919050565b8281835e5f83830152505050565b5f61099882610976565b6109a281856104a7565b93506109b2818560208601610980565b6109bb81610787565b840191505092915050565b5f6020820190508181035f8301526109de818461098e565b905092915050565b5f6109f08261092c565b9050919050565b610a00816109e6565b82525050565b5f602082019050610a195f8301846109f7565b92915050565b5f5ffd5b5f610a2d826105dd565b9050919050565b610a3d81610a23565b8114610a47575f5ffd5b50565b5f81359050610a5881610a34565b92915050565b5f8115159050919050565b610a7281610a5e565b8114610a7c575f5ffd5b50565b5f81359050610a8d81610a69565b92915050565b5f6101008284031215610aa957610aa8610a1f565b5b610ab46101006107f5565b90505f610ac384828501610604565b5f830152506020610ad684828501610637565b6020830152506040610aea84828501610a4a565b6040830152506060610afe84828501610604565b6060830152506080610b1284828501610a7f565b60808301525060a0610b2684828501610637565b60a08301525060c0610b3a84828501610a7f565b60c08301525060e0610b4e84828501610637565b60e08301525092915050565b5f6101008284031215610b7057610b6f6105b6565b5b5f610b7d84828501610a93565b91505092915050565b7f4e487b71000000000000000000000000000000000000000000000000000000005f52602260045260245ffd5b5f6002820490506001821680610bca57607f821691505b602082108103610bdd57610bdc610b86565b5b50919050565b5f819050815f5260205f209050919050565b5f6020601f8301049050919050565b5f82821b905092915050565b5f60088302610c3f7fffffffffffffffffffffffffffffffffffffffffffffffffffffffffffffffff82610c04565b610c498683610c04565b95508019841693508086168417925050509392505050565b5f610c7b610c76610c7184610618565b610902565b610618565b9050919050565b5f819050919050565b610c9483610c61565b610ca8610ca082610c82565b848454610c10565b825550505050565b5f5f905090565b610cbf610cb0565b610cca818484610c8b565b505050565b5b81811015610ced57610ce25f82610cb7565b600181019050610cd0565b5050565b601f821115610d3257610d0381610be3565b610d0c84610bf5565b81016020851015610d1b578190505b610d2f610d2785610bf5565b830182610ccf565b50505b505050565b5f82821c905092915050565b5f610d525f1984600802610d37565b1980831691505092915050565b5f610d6a8383610d43565b9150826002028217905092915050565b610d8382610976565b67ffffffffffffffff811115610d9c57610d9b610797565b5b610da68254610bb3565b610db1828285610cf1565b5f60209050601f831160018114610de2575f8415610dd0578287015190505b610dda8582610d5f565b865550610e41565b601f198416610df086610be3565b5f5b82811015610e1757848901518255600182019150602085019450602081019050610df2565b86831015610e345784890151610e30601f891682610d43565b8355505b6001600288020188555050505b505050505050565b610e52816105dd565b82525050565b5f602082019050610e6b5f830184610e49565b92915050565b5f81519050610e7f81610621565b92915050565b5f60208284031215610e9a57610e996105b6565b5b5f610ea784828501610e71565b91505092915050565b610eb981610a5e565b82525050565b5f604082019050610ed25f830185610e49565b610edf6020830184610eb0565b9392505050565b610eef816105dd565b82525050565b610efe81610618565b82525050565b5f610f0e8261092c565b9050919050565b610f1e81610f04565b82525050565b610f2d81610a5e565b82525050565b61010082015f820151610f485f850182610ee6565b506020820151610f5b6020850182610ef5565b506040820151610f6e6040850182610f15565b506060820151610f816060850182610ee6565b506080820151610f946080850182610f24565b5060a0820151610fa760a0850182610ef5565b5060c0820151610fba60c0850182610f24565b5060e0820151610fcd60e0850182610ef5565b50505050565b5f61010082019050610fe75f830184610f33565b9291505056fea26469706673582212208f76b114b6f3316317e0b4efbd4df16388ecf7c8b6480d301c52704bc8de88d664736f6c634300081c0033","linkReferences":{}},"methodIdentifiers":{"Name()":"8052474d","callList((address,uint256,address,address,bool,uint256,bool,uint256))":"d8e0b948","marketplace()":"abc8c7af","nft()":"47ccca02","onERC721Received(address,address,uint256,bytes)":"150b7a02","setname(string)":"2cefeb07"},"id":5}