{"abi":[{"type":"constructor","inputs":[],"stateMutability":"nonpayable"},{"type":"function","name":"acceptOffer","inputs":[{"name":"offerid","type":"uint256","internalType":"uint256"}],"outputs":[],"stateMutability":"nonpayable"},{"type":"function","name":"buyNft","inputs":[{"name":"listId","type":"uint256","internalType":"uint256"}],"outputs":[],"stateMutability":"payable"},{"type":"function","name":"callAnything","inputs":[{"name":"_target","type":"address","internalType":"address"}],"outputs":[],"stateMutability":"nonpayable"},{"type":"function","name":"callname","inputs":[{"name":"_target","type":"address","internalType":"address"}],"outputs":[],"stateMutability":"nonpayable"},{"type":"function","name":"cancelListing","inputs":[{"name":"listid","type":"uint256","internalType":"uint256"}],"outputs":[],"stateMutability":"nonpayable"},{"type":"function","name":"cancelOffer","inputs":[{"name":"offerid","type":"uint256","internalType":"uint256"}],"outputs":[],"stateMutability":"nonpayable"},{"type":"function","name":"changeOwner","inputs":[{"name":"newOwner","type":"address","internalType":"address"}],"outputs":[],"stateMutability":"nonpayable"},{"type":"function","name":"getListing","inputs":[{"name":"listId","type":"uint256","internalType":"uint256"}],"outputs":[{"name":"","type":"tuple","internalType":"struct Listing","components":[{"name":"owner","type":"address","internalType":"address"},{"name":"tokenId","type":"uint256","internalType":"uint256"},{"name":"paymentToken","type":"address","internalType":"contract IERC20"},{"name":"NftToken","type":"address","internalType":"address"},{"name":"isNative","type":"bool","internalType":"bool"},{"name":"price","type":"uint256","internalType":"uint256"},{"name":"sold","type":"bool","internalType":"bool"},{"name":"minOffer","type":"uint256","internalType":"uint256"}]}],"stateMutability":"view"},{"type":"function","name":"getOffer","inputs":[{"name":"offerId","type":"uint256","internalType":"uint256"}],"outputs":[{"name":"o","type":"tuple","internalType":"struct OfferDetails","components":[{"name":"listId","type":"uint256","internalType":"uint256"},{"name":"offerAmount","type":"uint256","internalType":"uint256"},{"name":"offerrer","type":"address","internalType":"address"},{"name":"status","type":"bool","internalType":"bool"}]}],"stateMutability":"view"},{"type":"function","name":"idToListing","inputs":[{"name":"listid","type":"uint256","internalType":"uint256"}],"outputs":[{"name":"owner","type":"address","internalType":"address"},{"name":"tokenId","type":"uint256","internalType":"uint256"},{"name":"paymentToken","type":"address","internalType":"contract IERC20"},{"name":"NftToken","type":"address","internalType":"address"},{"name":"isNative","type":"bool","internalType":"bool"},{"name":"price","type":"uint256","internalType":"uint256"},{"name":"sold","type":"bool","internalType":"bool"},{"name":"minOffer","type":"uint256","internalType":"uint256"}],"stateMutability":"view"},{"type":"function","name":"idToOffer","inputs":[{"name":"offerid","type":"uint256","internalType":"uint256"}],"outputs":[{"name":"listId","type":"uint256","internalType":"uint256"},{"name":"offerAmount","type":"uint256","internalType":"uint256"},{"name":"offerrer","type":"address","internalType":"address"},{"name":"status","type":"bool","internalType":"bool"}],"stateMutability":"view"},{"type":"function","name":"lastOfferId","inputs":[],"outputs":[{"name":"","type":"uint256","internalType":"uint256"}],"stateMutability":"view"},{"type":"function","name":"lastUpdatedid","inputs":[],"outputs":[{"name":"","type":"uint256","internalType":"uint256"}],"stateMutability":"view"},{"type":"function","name":"listNft","inputs":[{"name":"list","type":"tuple","internalType":"struct Listing","components":[{"name":"owner","type":"address","internalType":"address"},{"name":"tokenId","type":"uint256","internalType":"uint256"},{"name":"paymentToken","type":"address","internalType":"contract IERC20"},{"name":"NftToken","type":"address","internalType":"address"},{"name":"isNative","type":"bool","internalType":"bool"},{"name":"price","type":"uint256","internalType":"uint256"},{"name":"sold","type":"bool","internalType":"bool"},{"name":"minOffer","type":"uint256","internalType":"uint256"}]}],"outputs":[],"stateMutability":"nonpayable"},{"type":"function","name":"marketOwner","inputs":[],"outputs":[{"name":"","type":"address","internalType":"address"}],"stateMutability":"view"},{"type":"function","name":"offer","inputs":[{"name":"listid","type":"uint256","internalType":"uint256"},{"name":"offerAmount","type":"uint256","internalType":"uint256"}],"outputs":[],"stateMutability":"payable"}],"bytecode":{"object":"0x6080604052348015600e575f5ffd5b503360045f6101000a81548173ffffffffffffffffffffffffffffffffffffffff021916908373ffffffffffffffffffffffffffffffffffffffff160217905550613a7c8061005c5f395ff3fe6080604052600436106100f2575f3560e01c8063a192058611610089578063d6b68fda11610058578063d6b68fda14610303578063e6e601401461032b578063ee960a2f1461036e578063ef706adf14610396576100f2565b8063a19205861461026d578063a6f9dae114610289578063be94cf44146102b1578063c815729d146102db576100f2565b80634579268a116100c55780634579268a1461019e57806347d90b5c146101da578063643268c914610204578063673d19ab1461022e576100f2565b8063107a274a146100f657806322359de614610132578063243adbdd1461015a578063305a67a814610176575b5f5ffd5b348015610101575f5ffd5b5061011c60048036038101906101179190612860565b6103be565b60405161012991906129ee565b60405180910390f35b34801561013d575f5ffd5b5061015860048036038101906101539190612a32565b61053a565b005b610174600480360381019061016f9190612860565b610679565b005b348015610181575f5ffd5b5061019c60048036038101906101979190612860565b610c33565b005b3480156101a9575f5ffd5b506101c460048036038101906101bf9190612860565b610f92565b6040516101d19190612ab0565b60405180910390f35b3480156101e5575f5ffd5b506101ee611040565b6040516101fb9190612ad8565b60405180910390f35b34801561020f575f5ffd5b50610218611065565b6040516102259190612b00565b60405180910390f35b348015610239575f5ffd5b50610254600480360381019061024f9190612860565b61106b565b6040516102649493929190612b28565b60405180910390f35b61028760048036038101906102829190612b6b565b6110c3565b005b348015610294575f5ffd5b506102af60048036038101906102aa9190612a32565b61155b565b005b3480156102bc575f5ffd5b506102c561162d565b6040516102d29190612b00565b60405180910390f35b3480156102e6575f5ffd5b5061030160048036038101906102fc9190612860565b611633565b005b34801561030e575f5ffd5b5061032960048036038101906103249190612a32565b611d5f565b005b348015610336575f5ffd5b50610351600480360381019061034c9190612860565b611e64565b604051610365989796959493929190612bb8565b60405180910390f35b348015610379575f5ffd5b50610394600480360381019061038f9190612dec565b611f1d565b005b3480156103a1575f5ffd5b506103bc60048036038101906103b79190612860565b6122ec565b005b6103c6612761565b5f5f8381526020019081526020015f20604051806101000160405290815f82015f9054906101000a900473ffffffffffffffffffffffffffffffffffffffff1673ffffffffffffffffffffffffffffffffffffffff1673ffffffffffffffffffffffffffffffffffffffff16815260200160018201548152602001600282015f9054906101000a900473ffffffffffffffffffffffffffffffffffffffff1673ffffffffffffffffffffffffffffffffffffffff1673ffffffffffffffffffffffffffffffffffffffff168152602001600382015f9054906101000a900473ffffffffffffffffffffffffffffffffffffffff1673ffffffffffffffffffffffffffffffffffffffff1673ffffffffffffffffffffffffffffffffffffffff1681526020016003820160149054906101000a900460ff1615151515815260200160048201548152602001600582015f9054906101000a900460ff161515151581526020016006820154815250509050919050565b5f600a60405160240161054d9190612e5d565b6040516020818303038152906040527f4a8ebca0000000000000000000000000000000000000000000000000000000007bffffffffffffffffffffffffffffffffffffffffffffffffffffffff19166020820180517bffffffffffffffffffffffffffffffffffffffffffffffffffffffff838183161783525050505090505f8273ffffffffffffffffffffffffffffffffffffffff16826040516105f29190612ec8565b5f604051808303815f865af19150503d805f811461062b576040519150601f19603f3d011682016040523d82523d5f602084013e610630565b606091505b5050905080610674576040517f08c379a000000000000000000000000000000000000000000000000000000000815260040161066b90612f38565b60405180910390fd5b505050565b5f5f5f8381526020019081526020015f20604051806101000160405290815f82015f9054906101000a900473ffffffffffffffffffffffffffffffffffffffff1673ffffffffffffffffffffffffffffffffffffffff1673ffffffffffffffffffffffffffffffffffffffff16815260200160018201548152602001600282015f9054906101000a900473ffffffffffffffffffffffffffffffffffffffff1673ffffffffffffffffffffffffffffffffffffffff1673ffffffffffffffffffffffffffffffffffffffff168152602001600382015f9054906101000a900473ffffffffffffffffffffffffffffffffffffffff1673ffffffffffffffffffffffffffffffffffffffff1673ffffffffffffffffffffffffffffffffffffffff1681526020016003820160149054906101000a900460ff1615151515815260200160048201548152602001600582015f9054906101000a900460ff1615151515815260200160068201548152505090508060c001511561082e576040517f08c379a000000000000000000000000000000000000000000000000000000000815260040161082590612fa0565b60405180910390fd5b60015f5f8481526020019081526020015f206005015f6101000a81548160ff021916908315150217905550806080015115610a5c578060a0015134146108a9576040517f08c379a00000000000000000000000000000000000000000000000000000000081526004016108a090613008565b60405180910390fd5b5f815f015173ffffffffffffffffffffffffffffffffffffffff16606460618460a001516108d79190613053565b6108e191906130c1565b6040516108ed90613114565b5f6040518083038185875af1925050503d805f8114610927576040519150601f19603f3d011682016040523d82523d5f602084013e61092c565b606091505b505090505f60045f9054906101000a900473ffffffffffffffffffffffffffffffffffffffff1673ffffffffffffffffffffffffffffffffffffffff16606460038560a0015161097c9190613053565b61098691906130c1565b60405161099290613114565b5f6040518083038185875af1925050503d805f81146109cc576040519150601f19603f3d011682016040523d82523d5f602084013e6109d1565b606091505b5050905081610a15576040517f08c379a0000000000000000000000000000000000000000000000000000000008152600401610a0c90613172565b60405180910390fd5b80610a55576040517f08c379a0000000000000000000000000000000000000000000000000000000008152600401610a4c906131da565b60405180910390fd5b5050610bbd565b806040015173ffffffffffffffffffffffffffffffffffffffff166323b872dd33835f0151606460618660a00151610a949190613053565b610a9e91906130c1565b6040518463ffffffff1660e01b8152600401610abc939291906131f8565b6020604051808303815f875af1158015610ad8573d5f5f3e3d5ffd5b505050506040513d601f19601f82011682018060405250810190610afc9190613241565b50806040015173ffffffffffffffffffffffffffffffffffffffff166323b872dd3360045f9054906101000a900473ffffffffffffffffffffffffffffffffffffffff16606460038660a00151610b539190613053565b610b5d91906130c1565b6040518463ffffffff1660e01b8152600401610b7b939291906131f8565b6020604051808303815f875af1158015610b97573d5f5f3e3d5ffd5b505050506040513d601f19601f82011682018060405250810190610bbb9190613241565b505b806060015173ffffffffffffffffffffffffffffffffffffffff166323b872dd303384602001516040518463ffffffff1660e01b8152600401610c02939291906131f8565b5f604051808303815f87803b158015610c19575f5ffd5b505af1158015610c2b573d5f5f3e3d5ffd5b505050505050565b5f5f5f8381526020019081526020015f20604051806101000160405290815f82015f9054906101000a900473ffffffffffffffffffffffffffffffffffffffff1673ffffffffffffffffffffffffffffffffffffffff1673ffffffffffffffffffffffffffffffffffffffff16815260200160018201548152602001600282015f9054906101000a900473ffffffffffffffffffffffffffffffffffffffff1673ffffffffffffffffffffffffffffffffffffffff1673ffffffffffffffffffffffffffffffffffffffff168152602001600382015f9054906101000a900473ffffffffffffffffffffffffffffffffffffffff1673ffffffffffffffffffffffffffffffffffffffff1673ffffffffffffffffffffffffffffffffffffffff1681526020016003820160149054906101000a900460ff1615151515815260200160048201548152602001600582015f9054906101000a900460ff161515151581526020016006820154815250509050805f015173ffffffffffffffffffffffffffffffffffffffff163373ffffffffffffffffffffffffffffffffffffffff1614610e14576040517f08c379a0000000000000000000000000000000000000000000000000000000008152600401610e0b906132b6565b60405180910390fd5b8060c0015115610e59576040517f08c379a0000000000000000000000000000000000000000000000000000000008152600401610e509061331e565b60405180910390fd5b5f5f8381526020019081526020015f205f5f82015f6101000a81549073ffffffffffffffffffffffffffffffffffffffff0219169055600182015f9055600282015f6101000a81549073ffffffffffffffffffffffffffffffffffffffff0219169055600382015f6101000a81549073ffffffffffffffffffffffffffffffffffffffff02191690556003820160146101000a81549060ff0219169055600482015f9055600582015f6101000a81549060ff0219169055600682015f90555050806060015173ffffffffffffffffffffffffffffffffffffffff166323b872dd30835f015184602001516040518463ffffffff1660e01b8152600401610f61939291906131f8565b5f604051808303815f87803b158015610f78575f5ffd5b505af1158015610f8a573d5f5f3e3d5ffd5b505050505050565b610f9a6127e4565b60015f8381526020019081526020015f206040518060800160405290815f820154815260200160018201548152602001600282015f9054906101000a900473ffffffffffffffffffffffffffffffffffffffff1673ffffffffffffffffffffffffffffffffffffffff1673ffffffffffffffffffffffffffffffffffffffff1681526020016002820160149054906101000a900460ff1615151515815250509050919050565b60045f9054906101000a900473ffffffffffffffffffffffffffffffffffffffff1681565b60035481565b6001602052805f5260405f205f91509050805f015490806001015490806002015f9054906101000a900473ffffffffffffffffffffffffffffffffffffffff16908060020160149054906101000a900460ff16905084565b5f60035f8154809291906110d69061333c565b9190505590505f5f5f8581526020019081526020015f20604051806101000160405290815f82015f9054906101000a900473ffffffffffffffffffffffffffffffffffffffff1673ffffffffffffffffffffffffffffffffffffffff1673ffffffffffffffffffffffffffffffffffffffff16815260200160018201548152602001600282015f9054906101000a900473ffffffffffffffffffffffffffffffffffffffff1673ffffffffffffffffffffffffffffffffffffffff1673ffffffffffffffffffffffffffffffffffffffff168152602001600382015f9054906101000a900473ffffffffffffffffffffffffffffffffffffffff1673ffffffffffffffffffffffffffffffffffffffff1673ffffffffffffffffffffffffffffffffffffffff1681526020016003820160149054906101000a900460ff1615151515815260200160048201548152602001600582015f9054906101000a900460ff1615151515815260200160068201548152505090508060c0015115611291576040517f08c379a00000000000000000000000000000000000000000000000000000000081526004016112889061331e565b60405180910390fd5b806080015115611329578060e001513410156112e2576040517f08c379a00000000000000000000000000000000000000000000000000000000081526004016112d9906133cd565b60405180910390fd5b5f8314611324576040517f08c379a000000000000000000000000000000000000000000000000000000000815260040161131b90613435565b60405180910390fd5b6113f3565b8060e00151831015611370576040517f08c379a0000000000000000000000000000000000000000000000000000000008152600401611367906133cd565b60405180910390fd5b806040015173ffffffffffffffffffffffffffffffffffffffff166323b872dd3330866040518463ffffffff1660e01b81526004016113b1939291906131f8565b6020604051808303815f875af11580156113cd573d5f5f3e3d5ffd5b505050506040513d601f19601f820116820180604052508101906113f19190613241565b505b805f015173ffffffffffffffffffffffffffffffffffffffff163373ffffffffffffffffffffffffffffffffffffffff1603611464576040517f08c379a000000000000000000000000000000000000000000000000000000000815260040161145b9061349d565b60405180910390fd5b61146c6127e4565b84815f01818152505033816040019073ffffffffffffffffffffffffffffffffffffffff16908173ffffffffffffffffffffffffffffffffffffffff168152505081608001516114bc57836114be565b345b8160200181815250508060015f8581526020019081526020015f205f820151815f0155602082015181600101556040820151816002015f6101000a81548173ffffffffffffffffffffffffffffffffffffffff021916908373ffffffffffffffffffffffffffffffffffffffff16021790555060608201518160020160146101000a81548160ff0219169083151502179055509050505050505050565b60045f9054906101000a900473ffffffffffffffffffffffffffffffffffffffff1673ffffffffffffffffffffffffffffffffffffffff163373ffffffffffffffffffffffffffffffffffffffff16146115ea576040517f08c379a00000000000000000000000000000000000000000000000000000000081526004016115e190613505565b60405180910390fd5b8060045f6101000a81548173ffffffffffffffffffffffffffffffffffffffff021916908373ffffffffffffffffffffffffffffffffffffffff16021790555050565b60025481565b5f60015f8381526020019081526020015f206040518060800160405290815f820154815260200160018201548152602001600282015f9054906101000a900473ffffffffffffffffffffffffffffffffffffffff1673ffffffffffffffffffffffffffffffffffffffff1673ffffffffffffffffffffffffffffffffffffffff1681526020016002820160149054906101000a900460ff16151515158152505090505f5f5f835f015181526020019081526020015f20604051806101000160405290815f82015f9054906101000a900473ffffffffffffffffffffffffffffffffffffffff1673ffffffffffffffffffffffffffffffffffffffff1673ffffffffffffffffffffffffffffffffffffffff16815260200160018201548152602001600282015f9054906101000a900473ffffffffffffffffffffffffffffffffffffffff1673ffffffffffffffffffffffffffffffffffffffff1673ffffffffffffffffffffffffffffffffffffffff168152602001600382015f9054906101000a900473ffffffffffffffffffffffffffffffffffffffff1673ffffffffffffffffffffffffffffffffffffffff1673ffffffffffffffffffffffffffffffffffffffff1681526020016003820160149054906101000a900460ff1615151515815260200160048201548152602001600582015f9054906101000a900460ff1615151515815260200160068201548152505090503373ffffffffffffffffffffffffffffffffffffffff16815f015173ffffffffffffffffffffffffffffffffffffffff16146118b9576040517f08c379a00000000000000000000000000000000000000000000000000000000081526004016118b09061356d565b60405180910390fd5b8060c00151156118fe576040517f08c379a00000000000000000000000000000000000000000000000000000000081526004016118f5906135d5565b60405180910390fd5b5f73ffffffffffffffffffffffffffffffffffffffff16826040015173ffffffffffffffffffffffffffffffffffffffff1603611970576040517f08c379a0000000000000000000000000000000000000000000000000000000008152600401611967906133cd565b60405180910390fd5b60015f5f845f015181526020019081526020015f206005015f6101000a81548160ff0219169083151502179055506001805f8581526020019081526020015f2060020160146101000a81548160ff021916908315150217905550806080015115611b87575f815f015173ffffffffffffffffffffffffffffffffffffffff16606460618560200151611a029190613053565b611a0c91906130c1565b604051611a189061363d565b5f6040518083038185875af1925050503d805f8114611a52576040519150601f19603f3d011682016040523d82523d5f602084013e611a57565b606091505b505090505f60045f9054906101000a900473ffffffffffffffffffffffffffffffffffffffff1673ffffffffffffffffffffffffffffffffffffffff16606460038660200151611aa79190613053565b611ab191906130c1565b604051611abd90613114565b5f6040518083038185875af1925050503d805f8114611af7576040519150601f19603f3d011682016040523d82523d5f602084013e611afc565b606091505b5050905081611b40576040517f08c379a0000000000000000000000000000000000000000000000000000000008152600401611b379061369b565b60405180910390fd5b80611b80576040517f08c379a0000000000000000000000000000000000000000000000000000000008152600401611b7790613729565b60405180910390fd5b5050611ce4565b806040015173ffffffffffffffffffffffffffffffffffffffff1663a9059cbb825f0151606460618660200151611bbe9190613053565b611bc891906130c1565b6040518363ffffffff1660e01b8152600401611be5929190613747565b6020604051808303815f875af1158015611c01573d5f5f3e3d5ffd5b505050506040513d601f19601f82011682018060405250810190611c259190613241565b50806040015173ffffffffffffffffffffffffffffffffffffffff1663a9059cbb60045f9054906101000a900473ffffffffffffffffffffffffffffffffffffffff16606460038660200151611c7b9190613053565b611c8591906130c1565b6040518363ffffffff1660e01b8152600401611ca2929190613747565b6020604051808303815f875af1158015611cbe573d5f5f3e3d5ffd5b505050506040513d601f19601f82011682018060405250810190611ce29190613241565b505b806060015173ffffffffffffffffffffffffffffffffffffffff166323b872dd30846040015184602001516040518463ffffffff1660e01b8152600401611d2d939291906131f8565b5f604051808303815f87803b158015611d44575f5ffd5b505af1158015611d56573d5f5f3e3d5ffd5b50505050505050565b5f604051602401611d6f906137b8565b6040516020818303038152906040527f2cefeb07000000000000000000000000000000000000000000000000000000007bffffffffffffffffffffffffffffffffffffffffffffffffffffffff19166020820180517bffffffffffffffffffffffffffffffffffffffffffffffffffffffff838183161783525050505090505f8273ffffffffffffffffffffffffffffffffffffffff1682604051611e149190612ec8565b5f604051808303815f865af19150503d805f8114611e4d576040519150601f19603f3d011682016040523d82523d5f602084013e611e52565b606091505b5050905080611e5f575f5ffd5b505050565b5f602052805f5260405f205f91509050805f015f9054906101000a900473ffffffffffffffffffffffffffffffffffffffff1690806001015490806002015f9054906101000a900473ffffffffffffffffffffffffffffffffffffffff1690806003015f9054906101000a900473ffffffffffffffffffffffffffffffffffffffff16908060030160149054906101000a900460ff1690806004015490806005015f9054906101000a900460ff16908060060154905088565b5f60025f815480929190611f309061333c565b9190505590505f8260a0015111611f7c576040517f08c379a0000000000000000000000000000000000000000000000000000000008152600401611f7390613820565b60405180910390fd5b5f8260e0015111611fc2576040517f08c379a0000000000000000000000000000000000000000000000000000000008152600401611fb990613888565b60405180910390fd5b81608001511561203f575f73ffffffffffffffffffffffffffffffffffffffff16826040015173ffffffffffffffffffffffffffffffffffffffff161461203e576040517f08c379a0000000000000000000000000000000000000000000000000000000008152600401612035906138f0565b60405180910390fd5b5b612047612761565b33815f019073ffffffffffffffffffffffffffffffffffffffff16908173ffffffffffffffffffffffffffffffffffffffff168152505082602001518160200181815250508260400151816040019073ffffffffffffffffffffffffffffffffffffffff16908173ffffffffffffffffffffffffffffffffffffffff16815250508260a001518160a001818152505082608001518160800190151590811515815250508260e001518160e00181815250508260600151816060019073ffffffffffffffffffffffffffffffffffffffff16908173ffffffffffffffffffffffffffffffffffffffff1681525050805f5f8481526020019081526020015f205f820151815f015f6101000a81548173ffffffffffffffffffffffffffffffffffffffff021916908373ffffffffffffffffffffffffffffffffffffffff160217905550602082015181600101556040820151816002015f6101000a81548173ffffffffffffffffffffffffffffffffffffffff021916908373ffffffffffffffffffffffffffffffffffffffff1602179055506060820151816003015f6101000a81548173ffffffffffffffffffffffffffffffffffffffff021916908373ffffffffffffffffffffffffffffffffffffffff16021790555060808201518160030160146101000a81548160ff02191690831515021790555060a0820151816004015560c0820151816005015f6101000a81548160ff02191690831515021790555060e08201518160060155905050826060015173ffffffffffffffffffffffffffffffffffffffff166323b872dd333086602001516040518463ffffffff1660e01b81526004016122ba939291906131f8565b5f604051808303815f87803b1580156122d1575f5ffd5b505af11580156122e3573d5f5f3e3d5ffd5b50505050505050565b5f60015f8381526020019081526020015f206040518060800160405290815f820154815260200160018201548152602001600282015f9054906101000a900473ffffffffffffffffffffffffffffffffffffffff1673ffffffffffffffffffffffffffffffffffffffff1673ffffffffffffffffffffffffffffffffffffffff1681526020016002820160149054906101000a900460ff16151515158152505090505f5f5f835f015181526020019081526020015f20604051806101000160405290815f82015f9054906101000a900473ffffffffffffffffffffffffffffffffffffffff1673ffffffffffffffffffffffffffffffffffffffff1673ffffffffffffffffffffffffffffffffffffffff16815260200160018201548152602001600282015f9054906101000a900473ffffffffffffffffffffffffffffffffffffffff1673ffffffffffffffffffffffffffffffffffffffff1673ffffffffffffffffffffffffffffffffffffffff168152602001600382015f9054906101000a900473ffffffffffffffffffffffffffffffffffffffff1673ffffffffffffffffffffffffffffffffffffffff1673ffffffffffffffffffffffffffffffffffffffff1681526020016003820160149054906101000a900460ff1615151515815260200160048201548152602001600582015f9054906101000a900460ff161515151581526020016006820154815250509050816060015115612546576040517f08c379a000000000000000000000000000000000000000000000000000000000815260040161253d90613958565b60405180910390fd5b816040015173ffffffffffffffffffffffffffffffffffffffff163373ffffffffffffffffffffffffffffffffffffffff16146125b8576040517f08c379a00000000000000000000000000000000000000000000000000000000081526004016125af906139c0565b60405180910390fd5b60015f8481526020019081526020015f205f5f82015f9055600182015f9055600282015f6101000a81549073ffffffffffffffffffffffffffffffffffffffff02191690556002820160146101000a81549060ff021916905550508060800151156126d3575f826040015173ffffffffffffffffffffffffffffffffffffffff16836020015160405161264a90613114565b5f6040518083038185875af1925050503d805f8114612684576040519150601f19603f3d011682016040523d82523d5f602084013e612689565b606091505b50509050806126cd576040517f08c379a00000000000000000000000000000000000000000000000000000000081526004016126c490613a28565b60405180910390fd5b5061275c565b806040015173ffffffffffffffffffffffffffffffffffffffff1663a9059cbb836040015184602001516040518363ffffffff1660e01b815260040161271a929190613747565b6020604051808303815f875af1158015612736573d5f5f3e3d5ffd5b505050506040513d601f19601f8201168201806040525081019061275a9190613241565b505b505050565b6040518061010001604052805f73ffffffffffffffffffffffffffffffffffffffff1681526020015f81526020015f73ffffffffffffffffffffffffffffffffffffffff1681526020015f73ffffffffffffffffffffffffffffffffffffffff1681526020015f151581526020015f81526020015f151581526020015f81525090565b60405180608001604052805f81526020015f81526020015f73ffffffffffffffffffffffffffffffffffffffff1681526020015f151581525090565b5f604051905090565b5f5ffd5b5f819050919050565b61283f8161282d565b8114612849575f5ffd5b50565b5f8135905061285a81612836565b92915050565b5f6020828403121561287557612874612829565b5b5f6128828482850161284c565b91505092915050565b5f73ffffffffffffffffffffffffffffffffffffffff82169050919050565b5f6128b48261288b565b9050919050565b6128c4816128aa565b82525050565b6128d38161282d565b82525050565b5f819050919050565b5f6128fc6128f76128f28461288b565b6128d9565b61288b565b9050919050565b5f61290d826128e2565b9050919050565b5f61291e82612903565b9050919050565b61292e81612914565b82525050565b5f8115159050919050565b61294881612934565b82525050565b61010082015f8201516129635f8501826128bb565b50602082015161297660208501826128ca565b5060408201516129896040850182612925565b50606082015161299c60608501826128bb565b5060808201516129af608085018261293f565b5060a08201516129c260a08501826128ca565b5060c08201516129d560c085018261293f565b5060e08201516129e860e08501826128ca565b50505050565b5f61010082019050612a025f83018461294e565b92915050565b612a11816128aa565b8114612a1b575f5ffd5b50565b5f81359050612a2c81612a08565b92915050565b5f60208284031215612a4757612a46612829565b5b5f612a5484828501612a1e565b91505092915050565b608082015f820151612a715f8501826128ca565b506020820151612a8460208501826128ca565b506040820151612a9760408501826128bb565b506060820151612aaa606085018261293f565b50505050565b5f608082019050612ac35f830184612a5d565b92915050565b612ad2816128aa565b82525050565b5f602082019050612aeb5f830184612ac9565b92915050565b612afa8161282d565b82525050565b5f602082019050612b135f830184612af1565b92915050565b612b2281612934565b82525050565b5f608082019050612b3b5f830187612af1565b612b486020830186612af1565b612b556040830185612ac9565b612b626060830184612b19565b95945050505050565b5f5f60408385031215612b8157612b80612829565b5b5f612b8e8582860161284c565b9250506020612b9f8582860161284c565b9150509250929050565b612bb281612914565b82525050565b5f61010082019050612bcc5f83018b612ac9565b612bd9602083018a612af1565b612be66040830189612ba9565b612bf36060830188612ac9565b612c006080830187612b19565b612c0d60a0830186612af1565b612c1a60c0830185612b19565b612c2760e0830184612af1565b9998505050505050505050565b5f5ffd5b5f601f19601f8301169050919050565b7f4e487b71000000000000000000000000000000000000000000000000000000005f52604160045260245ffd5b612c7e82612c38565b810181811067ffffffffffffffff82111715612c9d57612c9c612c48565b5b80604052505050565b5f612caf612820565b9050612cbb8282612c75565b919050565b5f612cca826128aa565b9050919050565b612cda81612cc0565b8114612ce4575f5ffd5b50565b5f81359050612cf581612cd1565b92915050565b612d0481612934565b8114612d0e575f5ffd5b50565b5f81359050612d1f81612cfb565b92915050565b5f6101008284031215612d3b57612d3a612c34565b5b612d46610100612ca6565b90505f612d5584828501612a1e565b5f830152506020612d688482850161284c565b6020830152506040612d7c84828501612ce7565b6040830152506060612d9084828501612a1e565b6060830152506080612da484828501612d11565b60808301525060a0612db88482850161284c565b60a08301525060c0612dcc84828501612d11565b60c08301525060e0612de08482850161284c565b60e08301525092915050565b5f6101008284031215612e0257612e01612829565b5b5f612e0f84828501612d25565b91505092915050565b5f819050919050565b5f60ff82169050919050565b5f612e47612e42612e3d84612e18565b6128d9565b612e21565b9050919050565b612e5781612e2d565b82525050565b5f602082019050612e705f830184612e4e565b92915050565b5f81519050919050565b5f81905092915050565b8281835e5f83830152505050565b5f612ea282612e76565b612eac8185612e80565b9350612ebc818560208601612e8a565b80840191505092915050565b5f612ed38284612e98565b915081905092915050565b5f82825260208201905092915050565b7f43616c6c206661696c65640000000000000000000000000000000000000000005f82015250565b5f612f22600b83612ede565b9150612f2d82612eee565b602082019050919050565b5f6020820190508181035f830152612f4f81612f16565b9050919050565b7f414c726561647920536f6c6400000000000000000000000000000000000000005f82015250565b5f612f8a600c83612ede565b9150612f9582612f56565b602082019050919050565b5f6020820190508181035f830152612fb781612f7e565b9050919050565b7f496e636f727265637420707269636500000000000000000000000000000000005f82015250565b5f612ff2600f83612ede565b9150612ffd82612fbe565b602082019050919050565b5f6020820190508181035f83015261301f81612fe6565b9050919050565b7f4e487b71000000000000000000000000000000000000000000000000000000005f52601160045260245ffd5b5f61305d8261282d565b91506130688361282d565b92508282026130768161282d565b9150828204841483151761308d5761308c613026565b5b5092915050565b7f4e487b71000000000000000000000000000000000000000000000000000000005f52601260045260245ffd5b5f6130cb8261282d565b91506130d68361282d565b9250826130e6576130e5613094565b5b828204905092915050565b50565b5f6130ff5f83612e80565b915061310a826130f1565b5f82019050919050565b5f61311e826130f4565b9150819050919050565b7f4f776e6572207472616e73666572206661696c656400000000000000000000005f82015250565b5f61315c601583612ede565b915061316782613128565b602082019050919050565b5f6020820190508181035f83015261318981613150565b9050919050565b7f4d61726b65744f776e6572205472616e73666572206661696c656400000000005f82015250565b5f6131c4601b83612ede565b91506131cf82613190565b602082019050919050565b5f6020820190508181035f8301526131f1816131b8565b9050919050565b5f60608201905061320b5f830186612ac9565b6132186020830185612ac9565b6132256040830184612af1565b949350505050565b5f8151905061323b81612cfb565b92915050565b5f6020828403121561325657613255612829565b5b5f6132638482850161322d565b91505092915050565b7f556e617574686f72697a656420757365720000000000000000000000000000005f82015250565b5f6132a0601183612ede565b91506132ab8261326c565b602082019050919050565b5f6020820190508181035f8301526132cd81613294565b9050919050565b7f416c726561647920736f6c6400000000000000000000000000000000000000005f82015250565b5f613308600c83612ede565b9150613313826132d4565b602082019050919050565b5f6020820190508181035f830152613335816132fc565b9050919050565b5f6133468261282d565b91507fffffffffffffffffffffffffffffffffffffffffffffffffffffffffffffffff820361337857613377613026565b5b600182019050919050565b7f496e76616c6964206f66666572000000000000000000000000000000000000005f82015250565b5f6133b7600d83612ede565b91506133c282613383565b602082019050919050565b5f6020820190508181035f8301526133e4816133ab565b9050919050565b7f43616e6e6f74206f6666657220657263323000000000000000000000000000005f82015250565b5f61341f601283612ede565b915061342a826133eb565b602082019050919050565b5f6020820190508181035f83015261344c81613413565b9050919050565b7f4f776e65722063616e6e6f74206f6666657200000000000000000000000000005f82015250565b5f613487601283612ede565b915061349282613453565b602082019050919050565b5f6020820190508181035f8301526134b48161347b565b9050919050565b7f756e617574686f72697a656420757365720000000000000000000000000000005f82015250565b5f6134ef601183612ede565b91506134fa826134bb565b602082019050919050565b5f6020820190508181035f83015261351c816134e3565b9050919050565b7f556e617574686f72697a65642073656c6c6572000000000000000000000000005f82015250565b5f613557601383612ede565b915061356282613523565b602082019050919050565b5f6020820190508181035f8301526135848161354b565b9050919050565b7f416c726561647920536f6c6400000000000000000000000000000000000000005f82015250565b5f6135bf600c83612ede565b91506135ca8261358b565b602082019050919050565b5f6020820190508181035f8301526135ec816135b3565b9050919050565b7f687364666b6a76000000000000000000000000000000000000000000000000005f82015250565b5f613627600783612e80565b9150613632826135f3565b600782019050919050565b5f6136478261361b565b9150819050919050565b7f4661696c6564206f776e6572207472616e7366657200000000000000000000005f82015250565b5f613685601583612ede565b915061369082613651565b602082019050919050565b5f6020820190508181035f8301526136b281613679565b9050919050565b7f4661696c6564206d61726b6574506c61636520636f6d6d697373696f6e2074725f8201527f616e736665720000000000000000000000000000000000000000000000000000602082015250565b5f613713602683612ede565b915061371e826136b9565b604082019050919050565b5f6020820190508181035f83015261374081613707565b9050919050565b5f60408201905061375a5f830185612ac9565b6137676020830184612af1565b9392505050565b7f677265676f7279000000000000000000000000000000000000000000000000005f82015250565b5f6137a2600783612ede565b91506137ad8261376e565b602082019050919050565b5f6020820190508181035f8301526137cf81613796565b9050919050565b7f496e76616c6964207072696365000000000000000000000000000000000000005f82015250565b5f61380a600d83612ede565b9150613815826137d6565b602082019050919050565b5f6020820190508181035f830152613837816137fe565b9050919050565b7f496e76616c6964206d696e206f666665720000000000000000000000000000005f82015250565b5f613872601183612ede565b915061387d8261383e565b602082019050919050565b5f6020820190508181035f83015261389f81613866565b9050919050565b7f4552433230205061796d656e74206973206e6f7420737570706f7274656400005f82015250565b5f6138da601e83612ede565b91506138e5826138a6565b602082019050919050565b5f6020820190508181035f830152613907816138ce565b9050919050565b7f4f6666657220616c7265616479206163636570746564000000000000000000005f82015250565b5f613942601683612ede565b915061394d8261390e565b602082019050919050565b5f6020820190508181035f83015261396f81613936565b9050919050565b7f556e617574686f72697a6564206f6666657272657200000000000000000000005f82015250565b5f6139aa601583612ede565b91506139b582613976565b602082019050919050565b5f6020820190508181035f8301526139d78161399e565b9050919050565b7f4661696c656420726566756e64000000000000000000000000000000000000005f82015250565b5f613a12600d83612ede565b9150613a1d826139de565b602082019050919050565b5f6020820190508181035f830152613a3f81613a06565b905091905056fea2646970667358221220c5c73ff5248b55d72627b3b27fe9d80eb48339799fb4736455169271d63f522864736f6c634300081c0033","linkReferences":{}},"methodIdentifiers":{"acceptOffer(uint256)":"c815729d","buyNft(uint256)":"243adbdd","callAnything(address)":"22359de6","callname(address)":"d6b68fda","cancelListing(uint256)":"305a67a8","cancelOffer(uint256)":"ef706adf","changeOwner(address)":"a6f9dae1","getListing(uint256)":"107a274a","getOffer(uint256)":"4579268a","idToListing(uint256)":"e6e60140","idToOffer(uint256)":"673d19ab","lastOfferId()":"643268c9","lastUpdatedid()":"be94cf44","listNft((address,uint256,address,address,bool,uint256,bool,uint256))":"ee960a2f","marketOwner()":"47d90b5c","offer(uint256,uint256)":"a1920586"},"id":1}